:020000040000FA
:100C000033EF0EF0D9CFE5FFE1CFD9FF00C0E5FF0C
:100C1000020EDBCF00F00050010A01E0B2D0010E5D
:100C2000E56E000EE56A76EC07F0E652E652E56AFC
:100C3000010EE56E76EC07F0E652E652040E050171
:100C4000075DD8B04ED1FA6AFB6A0735FA36E83448
:100C5000FA36FC0B640FE56E0C0EFA22000EFB2236
:100C6000E450F96E3AEF06F05CEF06F07EEF06F026
:100C7000A0EF06F0010EE56E1C0EE56E76EC07F0B7
:100C8000E652E652010EE56E180EE56E76EC07F0C0
:100C9000E652E652E56A190EE56E76EC07F0E6528A
:100CA000E652E56A170EE56E76EC07F0E652E6527C
:100CB000010E0501076F15D1E56A1C0EE56E76EC95
:100CC00007F0E652E652010EE56E180EE56E76EC80
:100CD00007F0E652E652010EE56E190EE56E76EC6F
:100CE00007F0E652E652E56A170EE56E76EC07F07D
:100CF000E652E652020E0501076FF3D0E56A1C0EBC
:100D0000E56E76EC07F0E652E652E56A180EE56EFF
:100D100076EC07F0E652E652010EE56E190EE56E2E
:100D200076EC07F0E652E652010EE56E170EE56E20
:100D300076EC07F0E652E652030E0501076FD1D0BC
:100D4000010EE56E1C0EE56E76EC07F0E652E652FB
:100D5000E56A180EE56E76EC07F0E652E652E56AB3
:100D6000190EE56E76EC07F0E652E652010EE56EDE
:100D7000170EE56E76EC07F0E652E6520501076BBA
:100D8000B0D0000EE56AE56A76EC07F0E652E6526E
:100D9000010EE56EE56E76EC07F0E652E652040EC3
:100DA0000501075DD8B09DD0FA6AFB6A0735FA36AF
:100DB000E834FA36FC0BC60FE56E0D0EFA22000E73
:100DC000FB22E450F96EEBEF06F00DEF07F02FEF8A
:100DD00007F051EF07F0010EE56E1C0EE56E76ECA4
:100DE00007F0E652E652E56A180EE56E76EC07F07B
:100DF000E652E652E56A190EE56E76EC07F0E65229
:100E0000E652010EE56E170EE56E76EC07F0E6523F
:100E1000E652010E0501076F64D0010EE56E1C0E4F
:100E2000E56E76EC07F0E652E652010EE56E180E1E
:100E3000E56E76EC07F0E652E652E56A190EE56ECD
:100E400076EC07F0E652E652E56A170EE56E76ECB0
:100E500007F0E652E652020E0501076F42D0E56A3E
:100E60001C0EE56E76EC07F0E652E652010EE56EDA
:100E7000180EE56E76EC07F0E652E652010EE56ECE
:100E8000190EE56E76EC07F0E652E652E56A170EAB
:100E9000E56E76EC07F0E652E652030E0501076FA9
:100EA00020D0E56A1C0EE56E76EC07F0E652E652BD
:100EB000E56A180EE56E76EC07F0E652E652010E92
:100EC000E56E190EE56E76EC07F0E652E652010E7D
:100ED000E56E170EE56E76EC07F0E652E652050178
:100EE000076BE4CF00F0E4CFD9FF1200D9CFE5FFC4
:100EF000E1CFD9FF00C0E5FF01C0E5FF02C0E5FF7B
:100F000003C0E5FF04C0E5FF020EDBCF00F0030ED7
:100F1000DBCF01F05A0E0024026E036A1D0E03227D
:100F2000046A000E042202C0F6FF03C0F7FF04C0EB
:100F3000F8FF0900F5CF02F0050E025CD8B0F8D03A
:100F4000FA6AFB6A0234FA36E834FA36FC0B5E0FB2
:100F5000E56E0F0EFA22000EFB22E450F96EB9EF97
:100F600007F0E6EF07F013EF08F040EF08F06DEF41
:100F700008F0015015E03C0E0024026E036A1D0EBD
:100F80000322046A000E042202C0F6FF03C0F7FF2A
:100F900004C0F8FF0900F5CF02F002508912C8D052
:100FA0003C0E0024026E036A1D0E0322046A000E2A
:100FB000042202C0F6FF03C0F7FF04C0F8FF0900D7
:100FC000F5CF02F00250FF088916B2D0015015E0AB
:100FD0003C0E0024026E036A1D0E0322046A000EFA
:100FE000042202C0F6FF03C0F7FF04C0F8FF0900A7
:100FF000F5CF02F002508A129BD03C0E0024026E04
:10100000036A1D0E0322046A000E042202C0F6FFCA
:1010100003C0F7FF04C0F8FF0900F5CF02F002504B
:10102000FF088A1685D0015015E03C0E0024026EA0
:10103000036A1D0E0322046A000E042202C0F6FF9A
:1010400003C0F7FF04C0F8FF0900F5CF02F002501B
:101050008B126ED03C0E0024026E036A1D0E03221A
:10106000046A000E042202C0F6FF03C0F7FF04C0AA
:10107000F8FF0900F5CF02F00250FF088B1658D098
:10108000015015E03C0E0024026E036A1D0E03227F
:10109000046A000E042202C0F6FF03C0F7FF04C07A
:1010A000F8FF0900F5CF02F002508C1241D03C0E3F
:1010B0000024026E036A1D0E0322046A000E04223D
:1010C00002C0F6FF03C0F7FF04C0F8FF0900F5CF28
:1010D00002F00250FF088C162BD0015015E03C0E98
:1010E0000024016E026A1D0E0222036A000E032212
:1010F00001C0F6FF02C0F7FF03C0F8FF0900F5CFFB
:1011000001F001508D1214D0016A026A3C0E0026D3
:101110001D0E0122000E022200C0F6FF01C0F7FFE3
:1011200002C0F8FF0900F5CF00F00050FF088D164F
:10113000E4CF04F0E4CF03F0E4CF02F0E4CF01F019
:10114000E4CF00F0E4CFD9FF1200D9CFE5FFE1CF23
:10115000D9FF00C0E5FF01C0E5FF02C0E5FF03C005
:10116000E5FF04C0E5FF020EDBCF00F0030EDBCF8E
:1011700001F05A0E0024026E036A1D0E0322046A57
:10118000000E042202C0F6FF03C0F7FF04C0F8FF00
:101190000900F5CF02F0050E025CD8B0F8D0FA6A6B
:1011A000FB6A0234FA36E834FA36FC0BBC0FE56E03
:1011B000110EFA22000EFB22E450F96EE8EF08F05F
:1011C00015EF09F042EF09F06FEF09F09CEF09F01D
:1011D000015015E03C0E0024026E036A1D0E03222E
:1011E000046A000E042202C0F6FF03C0F7FF04C029
:1011F000F8FF0900F5CF02F002509212C8D03C0E61
:101200000024026E036A1D0E0322046A000E0422EB
:1012100002C0F6FF03C0F7FF04C0F8FF0900F5CFD6
:1012200002F00250FF089216B2D0015015E03C0EB9
:101230000024026E036A1D0E0322046A000E0422BB
:1012400002C0F6FF03C0F7FF04C0F8FF0900F5CFA6
:1012500002F0025093129BD03C0E0024026E036AEF
:101260001D0E0322046A000E042202C0F6FF03C012
:10127000F7FF04C0F8FF0900F5CF02F00250FF08A5
:10128000931685D0015015E03C0E0024026E036ACF
:101290001D0E0322046A000E042202C0F6FF03C0E2
:1012A000F7FF04C0F8FF0900F5CF02F002509412D6
:1012B0006ED03C0E0024026E036A1D0E0322046AE7
:1012C000000E042202C0F6FF03C0F7FF04C0F8FFBF
:1012D0000900F5CF02F00250FF08941658D00150D3
:1012E00015E03C0E0024026E036A1D0E0322046A00
:1012F000000E042202C0F6FF03C0F7FF04C0F8FF8F
:101300000900F5CF02F00250951241D03C0E0024A6
:10131000026E036A1D0E0322046A000E042202C03C
:10132000F6FF03C0F7FF04C0F8FF0900F5CF02F095
:101330000250FF0895162BD0015015E03C0E0024FA
:10134000016E026A1D0E0222036A000E032201C012
:10135000F6FF02C0F7FF03C0F8FF0900F5CF01F068
:101360000150961214D0016A026A3C0E00261D0E2E
:101370000122000E022200C0F6FF01C0F7FF02C0EA
:10138000F8FF0900F5CF00F00050FF089616E4CFF3
:1013900004F0E4CF03F0E4CF02F0E4CF01F0E4CFB7
:1013A00000F0E4CFD9FF120000C0E5FF01C0E5FF67
:1013B00002C0E5FF03C0E5FF04C0E5FF05C0E5FF8F
:1013C000D350030B006E0050D8A491D0E56A300EC4
:1013D000E56E000EE56AE56ADBEC0DF0006E040ECA
:1013E000E126180E0016016AD89001320032D8901A
:1013F00001320032D89001320032180E0024016E02
:10140000026A1D0E0222036A000E032201C0F6FFCB
:1014100002C0F7FF03C0F8FF0900F5CF01F0E56A4D
:10142000300EE56EE56A010EE56EDBEC0DF0026E46
:10143000040EE1260F0E0216140E0024036E046A39
:101440001D0E0422056A000E052203C0F6FF04C02B
:10145000F7FF05C0F8FF0900F5CF00F0D890023281
:10146000025006E00250020A03E00250060A1FE1A1
:10147000E56AE56AE56A0150E56EE56A7A0EE56EB1
:10148000120EE56E000EE56A9CEC0BF0016EF3CFD8
:1014900002F0F4CF03F0E9CF04F0080EE12604C017
:1014A000E9FF03C0F4FF02C0F3FF015063D0E56A17
:1014B000E56AE56A0050E56E050EE56EB80EE56E6C
:1014C000D80EE56E000EE56A6BEC0CF0006EF3CF03
:1014D00001F0F4CF02F0E9CF03F0080EE12603C0DB
:1014E000E9FF02C0F4FF01C0F3FF005043D0D35026
:1014F000030B010A06E1E96AF46A800EF36EE86AFA
:1015000039D0D350030B800F7E0F30E3D350E8382F
:10151000070BE56AE56EE56A040EE56EDCEC0EF09D
:10152000006EF3CF01F0040EE126026A1C0E0026C5
:101530001D0E0122000E022200C0F6FF01C0F7FFBF
:1015400002C0F8FF0900F5CF00F00900F5CF01F067
:101550000900F5CF02F00900F5CF03F003C0E9FF61
:1015600002C0F4FF01C0F3FF005004D0E96AF46A3E
:10157000F36AE86AE4CF05F0E4CF04F0E4CF03F0C7
:10158000E4CF02F0E4CF01F0E4CF00F01200D9CFB5
:10159000E5FFE1CFD9FF00C0E5FF01C0E5FF02C0D4
:1015A000E5FF03C0E5FF020EDBCF00F05A0E00247A
:1015B000016E026A1D0E0222036A000E032201C0A0
:1015C000F6FF02C0F7FF03C0F8FF0900F5CF01F0F6
:1015D000050E015CD8B0A4D0FA6AFB6A0134FA3671
:1015E000E834FA36FC0BF60FE56E150EFA22000E03
:1015F000FB22E450F96E05EF0BF021EF0BF03DEF0D
:101600000BF059EF0BF075EF0BF03C0E0024016E60
:10161000026A1D0E0222036A000E032201C0F6FFB9
:1016200002C0F7FF03C0F8FF0900F5CF01F08050BA
:101630000116015003E0010E016E01D0016A015054
:1016400070D03C0E0024016E026A1D0E0222036A55
:10165000000E032201C0F6FF02C0F7FF03C0F8FF2F
:101660000900F5CF01F081500116015003E0010E91
:10167000016E01D0016A015054D03C0E0024016E6D
:10168000026A1D0E0222036A000E032201C0F6FF49
:1016900002C0F7FF03C0F8FF0900F5CF01F0825048
:1016A0000116015003E0010E016E01D0016A0150E4
:1016B00038D03C0E0024016E026A1D0E0222036A1D
:1016C000000E032201C0F6FF02C0F7FF03C0F8FFBF
:1016D0000900F5CF01F083500116015003E0010E1F
:1016E000016E01D0016A01501CD0016A026A3C0EF1
:1016F00000261D0E0122000E022200C0F6FF01C0CE
:10170000F7FF02C0F8FF0900F5CF00F08450001683
:10171000005003E0010E006E01D0006A005001D0BD
:10172000E86AE4CF03F0E4CF02F0E4CF01F0E4CFC5
:1017300000F0E4CFD9FF1200D9CFE5FFE1CFD9FF08
:1017400000C0E5FF01C0E5FF02C0E5FF03C0E5FF03
:1017500004C0E5FF05C0E5FF06C0E5FF07C0E5FFE3
:1017600008C0E5FF09C0E5FF0AC0E5FF0BC0E5FFC3
:101770000CC0E5FF0DC0E5FF020EDBCF00F0030E4D
:10178000DBCF01F0040EDBCF02F0050EDBCF03F060
:10179000060EDBCF04F0070EDBCF05F0080EDBCF23
:1017A00006F0090EDBCF07F0D88003AED890086AA8
:1017B000083608500FE0031C0C6E021C0B6E011C57
:1017C0000A6E001C096E092A0DE10A2A0BE10B4A78
:1017D0000C2A08D000C009F001C00AF002C00BF0CA
:1017E00003C00CF0D88007AED890006A00360050D5
:1017F0000FE0071C0D6E061C036E051C026E041C18
:10180000016E012A0DE1022A0BE1034A0D2A08D0DC
:1018100004C001F005C002F006C003F007C00DF0DF
:101820000D50E56E0350E56E0250E56E0150E56E19
:101830000C50E56E0B50E56E0A50E56E0950E56EF2
:101840006BEC0CF0016EF3CF02F0F4CF03F0E9CFB4
:1018500004F0080EE1260050081A085016E0041C97
:10186000076E031C066E021C056E011C006E002A2A
:1018700004E1052A02E1064A072A07C0E9FF06C07B
:10188000F4FF05C0F3FF005007D004C0E9FF03C018
:10189000F4FF02C0F3FF0150E4CF0DF0E4CF0CF0F1
:1018A000E4CF0BF0E4CF0AF0E4CF09F0E4CF08F086
:1018B000E4CF07F0E4CF06F0E4CF05F0E4CF04F086
:1018C000E4CF03F0E4CF02F0E4CF01F0E4CF00F086
:1018D000E4CFD9FF1200D9CFE5FFE1CFD9FF00C097
:1018E000E5FF01C0E5FF02C0E5FF03C0E5FF04C05E
:1018F000E5FF05C0E5FF06C0E5FF07C0E5FF08C03E
:10190000E5FF09C0E5FF0AC0E5FF0BC0E5FF0CC01D
:10191000E5FF0DC0E5FF020EDBCF00F0030EDBCFCD
:1019200001F0040EDBCF02F0050EDBCF03F0060E54
:10193000DBCF04F0070EDBCF05F0080EDBCF06F09F
:10194000090EDBCF07F0086A096A0A6A0B6A200EE3
:101950000C6E0350800BE8440D6E005000260136DB
:10196000023603360850082609360A360B360D5063
:10197000D8A4088007500B5C08E106500A5C05E11A
:101980000550095C02E10450085C09E30450085E5C
:101990000550095A06500A5A07500B5A00800C0489
:1019A0000D6E0DC00CF00D50D4E103C0E9FF02C074
:1019B000F4FF01C0F3FF0050E4CF0DF0E4CF0CF0D2
:1019C000E4CF0BF0E4CF0AF0E4CF09F0E4CF08F065
:1019D000E4CF07F0E4CF06F0E4CF05F0E4CF04F065
:1019E000E4CF03F0E4CF02F0E4CF01F0E4CF00F065
:1019F000E4CFD9FF120000C0E5FF01C0E5FF780E7B
:101A0000F66E1D0EF76E000EF86E0900F5CF00F0B1
:101A10000900F5CF01F00050E56E2CEC0FF0050148
:101A2000056FF3CF06F5E6520651E56E0551E56EFA
:101A3000270EE56E100EE56EDCEC0EF0006EF3CFB7
:101A400001F0040EE12600C001F501C002F5050118
:101A5000036B046BE56AE56A030EE56EE568045105
:101A6000E56E0351E56E0251E56E0151E56E6BECDA
:101A70000CF00501016FF3CF02F5F4CF03F5E9CFC8
:101A800004F5080EE126F40E0127010E0223000ED4
:101A90000323042305010651E56E0551E56E7DEC37
:101AA0000DF0E652E6521B0EE56EC7EC0AF0006E32
:101AB000E652005003E1010E0501006F1A0EE56EBB
:101AC000C7EC0AF0006EE652005002E10501006B1F
:101AD00005010451E56E0351E56E0251E56E0151B9
:101AE000E56E05010051E56E02EC06F0050EE126FB
:101AF000E4CF01F0E4CF00F01200D9CFE5FFE1CF51
:101B0000D9FF00C0E5FF01C0E5FF02C0E5FF03C04B
:101B1000E5FF04C0E5FF05C0E5FF020EDBCF00F0E6
:101B2000030EDBCF01F0D4EC09F0026EF3CF03F02B
:101B3000F4CF04F0E9CF05F0D89005320432033237
:101B40000232D8900532043203320232E56A010EC5
:101B5000E56E860EE56EA00EE56E0550E56E04504E
:101B6000E56E0350E56E0250E56E6BEC0CF0026E14
:101B7000080EE12600C004F001C005F0FF0E0026AB
:101B800001220450051008E00250046EFD0E0426E8
:101B90000450BDEC0EF0EED7E4CF05F0E4CF04F036
:101BA000E4CF03F0E4CF02F0E4CF01F0E4CF00F0A3
:101BB000E4CFD9FF1200D9CFE5FFE1CFD9FF00C0B4
:101BC000E5FF01C0E5FF02C0E5FF03C0E5FF04C07B
:101BD000E5FF05C0E5FF06C0E5FF07C0E5FF020E13
:101BE000DBCF00F0030EDBCF01F0040EDBCF02F001
:101BF000050EDBCF03F00250046E0350056E066A3B
:101C0000076A0450F86E0150046E0250056E0350CE
:101C1000066E076A0450F76E0050F66E0900F5CFA5
:101C200000F00900F5CF01F0026A0150046E036A6A
:101C3000056A005003260550042204C0F3FF035038
:101C4000E4CF07F0E4CF06F0E4CF05F0E4CF04F0F2
:101C5000E4CF03F0E4CF02F0E4CF01F0E4CF00F0F2
:101C6000E4CFD9FF120014EEFFF024EEFFF0F86A83
:101C7000A68EA69CBF0EE96E0E0EEA6E0068ED6A97
:101C80000050FDE1900EF66E200EF76E000EF86E1D
:101C90000900F5CF05F00900F5CF06F034D00900B2
:101CA000F5CF00F00900F5CF01F00900F5CF02F003
:101CB00009000900F5CFE9FF0900F5CFEAFF0900A7
:101CC00009000900F5CF03F00900F5CF04F0090081
:101CD0000900F6CF07F0F7CF08F0F8CF09F000C001
:101CE000F6FF01C0F7FF02C0F8FF03D00900F5CFEF
:101CF000EEFF0306FBE20406F9E207C0F6FF08C0A8
:101D0000F7FF09C0F8FF0506CAE20606C8E201ECC3
:101D100010F0FFD70203040601020304127A000048
:101D200048E8010090D0030020A1070040420F00C6
:101D300080841E0000093D0000127A0001020408A0
:101D400010204080408001020401020408200102AA
:101D5000040102040810204080100101010101016A
:101D60000101020202020200000000000404040358
:101D700003030303030303000D00E806E56E090EE9
:101D8000D0EC0EF0E4500BE000D0E56E090ED0EC84
:101D90000EF000D0E450000000D0E82EF6D712007C
:101DA000E8060000E85007E000D000D000D000D0E6
:101DB0000000E82EFAD71200D9CFE5FFE1CFD9FF16
:101DC00000C0E5FF01C0E5FF02C0E5FF03C0E5FF7D
:101DD000020EDBCF00F0030EDBCF01F0040EDBCFF1
:101DE00002F0050EDBCF03F0005005010D6F01502E
:101DF0000E6F025005010F6F0350106F05010D515A
:101E000005010F03F4CF01F0F3CF00F000500501FE
:101E1000116F0150126F05010D5105011003F3CF31
:101E200000F005010E5105010F03F3CF01F0015041
:101E300000260501125100260050126F12C5F3FF53
:101E40001151E4CF03F0E4CF02F0E4CF01F0E4CF8E
:101E500000F0E4CFD9FF1200D9CFE5FFE1CFD9FFE1
:101E600000C0E5FF01C0E5FF02C0E5FF03C0E5FFDC
:101E7000020EDBCF00F00D0E005C0BE3150E005CD4
:101E800008E2F30E0024016E0144E844FC0BC26E2C
:101E900007D0060E005C04E20044E844FC0BC26E6E
:101EA000C280090E006E016A0000FF0E00260122AA
:101EB00000500110F9E1C282C2B2FED7C4CF00F0D7
:101EC000016A0050036E026AC3CF00F0016A00503D
:101ED000022601500322C29003C0F3FF0250E4CF58
:101EE00003F0E4CF02F0E4CF01F0E4CF00F0E4CF60
:101EF000D9FF1200D9CFE5FFE1CFD9FF00C0E5FF40
:101F000001C0E5FF02C0E5FF03C0E5FF020EDBCF25
:101F100000F0030EDBCF01F0040EDBCF02F0005027
:101F20000B0A17E000500C0A25E10C0EBD6ED8908C
:101F30000230036E0130006ED89003320032005040
:101F4000BE6E0150006E030E00160038F00BBD127D
:101F500011D00C0EBA6ED8900230036E0130006EB4
:101F6000D890033200320050BB6E030E01160138C8
:101F7000F00BBA129E92E4CF03F0E4CF02F0E4CF6C
:101F800001F0E4CF00F0E4CFD9FF1200000EE56AC3
:101F9000E56AA5EC08F0E652E652E56A010EE56E48
:101FA000A5EC08F0E652E652E56A1C0EE56EA5ECDB
:101FB00008F0E652E652E56A180EE56EA5EC08F068
:101FC000E652E652E56A190EE56EA5EC08F0E65217
:101FD000E652E56A170EE56EA5EC08F0E652E65209
:101FE000010EE56E1B0EE56EA5EC08F0E652E6521A
:101FF000010EE56E1A0EE56EA5EC08F0E652E6520B
:102000001200D0B202D0930ED012D350030B800F27
:102010007E0F02E3D3A4FED718EC10F054EC10F0BE
:1020200040EC10F0C6EC0FF0FBEC0CF0FDD712000A
:10203000896A8A6A8B6A8C6A8D6A926A936A9490BA
:1020400094929494949C949E956A966A806A816A0C
:10205000826A836A846A1200D9CFE5FFE1CFD9FF93
:1020600000C0E5FF020EDBCF00F0005004E000509E
:10207000010A01E1C188E4CF00F0E4CFD9FF1200EA
:102080002F0E9212070E9612C16EBD0EC06E120078
:1020900001009E2000000005000009000000000073
:1020A00000000000000000000F0EC16E070EB46EAD
:0A20B0001200CB68040ECA6E120085
:00000001FF
