:020000040000FA
:100C00008BEF0EF0D9CFE5FFE1CFD9FF00C0E5FFB4
:100C100001C0E5FF02C0E5FF03C0E5FF04C0E5FF3A
:100C2000020EDBCF00F0030EDBCF01F02E0E00240E
:100C3000026E036A1B0E0322046A000E042202C025
:100C4000F6FF03C0F7FF04C0F8FF0900F5CF02F07C
:100C5000050E025CD8B0F8D0FA6AFB6A0234FA36A4
:100C6000E834FA36FC0B760FE56E0C0EFA22000E15
:100C7000FB22E450F96E45EF06F072EF06F09FEFAD
:100C800006F0CCEF06F0F9EF06F0015015E0100E7B
:100C90000024026E036A1B0E0322046A000E042263
:100CA00002C0F6FF03C0F7FF04C0F8FF0900F5CF4C
:100CB00002F002508912C8D0100E0024026E036A9E
:100CC0001B0E0322046A000E042202C0F6FF03C0BA
:100CD000F7FF04C0F8FF0900F5CF02F00250FF084B
:100CE0008916B2D0015015E0100E0024026E036A7E
:100CF0001B0E0322046A000E042202C0F6FF03C08A
:100D0000F7FF04C0F8FF0900F5CF02F002508A1285
:100D10009BD0100E0024026E036A1B0E0322046A8D
:100D2000000E042202C0F6FF03C0F7FF04C0F8FF64
:100D30000900F5CF02F00250FF088A1685D0015055
:100D400015E0100E0024026E036A1B0E0322046AD3
:100D5000000E042202C0F6FF03C0F7FF04C0F8FF34
:100D60000900F5CF02F002508B126ED0100E002455
:100D7000026E036A1B0E0322046A000E042202C0E4
:100D8000F6FF03C0F7FF04C0F8FF0900F5CF02F03B
:100D90000250FF088B1658D0015015E0100E0024A9
:100DA000026E036A1B0E0322046A000E042202C0B4
:100DB000F6FF03C0F7FF04C0F8FF0900F5CF02F00B
:100DC00002508C1241D0100E0024026E036A1B0EDA
:100DD0000322046A000E042202C0F6FF03C0F7FFDC
:100DE00004C0F8FF0900F5CF02F00250FF088C168E
:100DF0002BD0015015E0100E0024016E026A1B0E6C
:100E00000222036A000E032201C0F6FF02C0F7FFB0
:100E100003C0F8FF0900F5CF01F001508D1214D086
:100E2000016A026A100E00261B0E0122000E022229
:100E300000C0F6FF01C0F7FF02C0F8FF0900F5CFC0
:100E400000F00050FF088D16E4CF04F0E4CF03F06B
:100E5000E4CF02F0E4CF01F0E4CF00F0E4CFD9FF1B
:100E60001200D9CFE5FFE1CFD9FF00C0E5FF01C0F7
:100E7000E5FF02C0E5FF03C0E5FF04C0E5FF020E89
:100E8000DBCF00F0030EDBCF01F02E0E0024026E4C
:100E9000036A1B0E0322046A000E042202C0F6FF3E
:100EA00003C0F7FF04C0F8FF0900F5CF02F0050EFC
:100EB000025CD8B0F8D0FA6AFB6A0234FA36E83439
:100EC000FA36FC0BD40FE56E0E0EFA22000EFB2252
:100ED000E450F96E74EF07F0A1EF07F0CEEF07F0E2
:100EE000FBEF07F028EF08F0015015E0100E00248A
:100EF000026E036A1B0E0322046A000E042202C063
:100F0000F6FF03C0F7FF04C0F8FF0900F5CF02F0B9
:100F100002509212C8D0100E0024026E036A1B0EFB
:100F20000322046A000E042202C0F6FF03C0F7FF8A
:100F300004C0F8FF0900F5CF02F00250FF08921636
:100F4000B2D0015015E0100E0024026E036A1B0E91
:100F50000322046A000E042202C0F6FF03C0F7FF5A
:100F600004C0F8FF0900F5CF02F0025093129BD0A5
:100F7000100E0024026E036A1B0E0322046A000E88
:100F8000042202C0F6FF03C0F7FF04C0F8FF090007
:100F9000F5CF02F00250FF08931685D0015015E0FE
:100FA000100E0024026E036A1B0E0322046A000E58
:100FB000042202C0F6FF03C0F7FF04C0F8FF0900D7
:100FC000F5CF02F0025094126ED0100E0024026E83
:100FD000036A1B0E0322046A000E042202C0F6FFFD
:100FE00003C0F7FF04C0F8FF0900F5CF02F002507C
:100FF000FF08941658D0015015E0100E0024026E20
:10100000036A1B0E0322046A000E042202C0F6FFCC
:1010100003C0F7FF04C0F8FF0900F5CF02F002504B
:10102000951241D0100E0024026E036A1B0E03229B
:10103000046A000E042202C0F6FF03C0F7FF04C0DA
:10104000F8FF0900F5CF02F00250FF0895162BD0EB
:10105000015015E0100E0024016E026A1B0E0222E0
:10106000036A000E032201C0F6FF02C0F7FF03C0AF
:10107000F8FF0900F5CF01F00150961214D0016A73
:10108000026A100E00261B0E0122000E022200C072
:10109000F6FF01C0F7FF02C0F8FF0900F5CF00F02E
:1010A0000050FF089616E4CF04F0E4CF03F0E4CF3D
:1010B00002F0E4CF01F0E4CF00F0E4CFD9FF12005A
:1010C00000C0E5FF01C0E5FF02C0E5FF03C0E5FF8A
:1010D00004C0E5FF05C0E5FFD350030B006E0050D0
:1010E000D8A491D0E56A300EE56E000EE56AE56A97
:1010F00033EC0EF0006E040EE126180E0016016AA5
:10110000D89001320032D89001320032D8900132AA
:101110000032EC0E0024016E026A1A0E0222036AEB
:10112000000E032201C0F6FF02C0F7FF03C0F8FF64
:101130000900F5CF01F0E56A300EE56EE56A010EB3
:10114000E56E33EC0EF0026E040EE1260F0E021671
:10115000E80E0024036E046A1A0E0422056A000ECB
:10116000052203C0F6FF04C0F7FF05C0F8FF090021
:10117000F5CF00F0D8900232025006E00250020A89
:1011800003E00250060A1FE1E56AE56AE56A0150DC
:10119000E56EE56A7A0EE56E120EE56E000EE56A02
:1011A00028EC0AF0016EF3CF02F0F4CF03F0E9CFA0
:1011B00004F0080EE12604C0E9FF03C0F4FF02C0FA
:1011C000F3FF015063D0E56AE56AE56A0050E56E19
:1011D000050EE56EB80EE56ED80EE56E000EE56AFA
:1011E000E4EC0CF0006EF3CF01F0F4CF02F0E9CFA5
:1011F00003F0080EE12603C0E9FF02C0F4FF01C0BE
:10120000F3FF005043D0D350030B010A06E1E96A13
:10121000F46A800EF36EE86A39D0D350030B800F66
:101220007E0F30E3D350E838070BE56AE56EE56AD8
:10123000040EE56EE2EC0EF0006EF3CF01F0040E4A
:10124000E126026AF00E00261A0E0122000E02228A
:1012500000C0F6FF01C0F7FF02C0F8FF0900F5CF9C
:1012600000F00900F5CF01F00900F5CF02F0090008
:10127000F5CF03F003C0E9FF02C0F4FF01C0F3FFA4
:10128000005004D0E96AF46AF36AE86AE4CF05F032
:10129000E4CF04F0E4CF03F0E4CF02F0E4CF01F0B8
:1012A000E4CF00F01200D9CFE5FFE1CFD9FF00C0B5
:1012B000E5FF01C0E5FF02C0E5FF03C0E5FF020E48
:1012C000DBCF00F02E0E0024016E026A1B0E0222FC
:1012D000036A000E032201C0F6FF02C0F7FF03C03D
:1012E000F8FF0900F5CF01F0050E015CD8B0A4D0DD
:1012F000FA6AFB6A0134FA36E834FA36FC0B0E0F50
:10130000E56E130EFA22000EFB22E450F96E91EF07
:1013100009F0ADEF09F0C9EF09F0E5EF09F001EFD1
:101320000AF0100E0024016E026A1B0E0222036AEC
:10133000000E032201C0F6FF02C0F7FF03C0F8FF52
:101340000900F5CF01F080500116015003E0010EB5
:10135000016E01D0016A015070D0100E0024016EA0
:10136000026A1B0E0222036A000E032201C0F6FF6E
:1013700002C0F7FF03C0F8FF0900F5CF01F081506C
:101380000116015003E0010E016E01D0016A015007
:1013900054D0100E0024016E026A1B0E0222036A52
:1013A000000E032201C0F6FF02C0F7FF03C0F8FFE2
:1013B0000900F5CF01F082500116015003E0010E43
:1013C000016E01D0016A015038D0100E0024016E68
:1013D000026A1B0E0222036A000E032201C0F6FFFE
:1013E00002C0F7FF03C0F8FF0900F5CF01F08350FA
:1013F0000116015003E0010E016E01D0016A015097
:101400001CD0016A026A100E00261B0E0122000E7B
:10141000022200C0F6FF01C0F7FF02C0F8FF09007A
:10142000F5CF00F084500016005003E0010E006E6E
:1014300001D0006A005001D0E86AE4CF03F0E4CFA5
:1014400002F0E4CF01F0E4CF00F0E4CFD9FF1200C6
:10145000D9CFE5FFE1CFD9FF00C0E5FF01C0E5FF2F
:1014600002C0E5FF03C0E5FF04C0E5FF05C0E5FFDE
:1014700006C0E5FF07C0E5FF08C0E5FF09C0E5FFBE
:101480000AC0E5FF0BC0E5FF0CC0E5FF0DC0E5FF9E
:10149000020EDBCF00F0030EDBCF01F0040EDBCF3A
:1014A00002F0050EDBCF03F0060EDBCF04F0070ED3
:1014B000DBCF05F0080EDBCF06F0090EDBCF07F01F
:1014C000D88003AED890086A083608500FE0031C95
:1014D0000C6E021C0B6E011C0A6E001C096E092AA0
:1014E0000DE10A2A0BE10B4A0C2A08D000C009F0D2
:1014F00001C00AF002C00BF003C00CF0D88007AEA8
:10150000D890006A003600500FE0071C0D6E061CD4
:10151000036E051C026E041C016E012A0DE1022AF5
:101520000BE1034A0D2A08D004C001F005C002F007
:1015300006C003F007C00DF00D50E56E0350E56ED8
:101540000250E56E0150E56E0C50E56E0B50E56EF5
:101550000A50E56E0950E56EE4EC0CF0016EF3CF35
:1015600002F0F4CF03F0E9CF04F0080EE1260050BA
:10157000081A085016E0041C076E031C066E021CB5
:10158000056E011C006E002A04E1052A02E1064AEC
:10159000072A07C0E9FF06C0F4FF05C0F3FF0050AB
:1015A00007D004C0E9FF03C0F4FF02C0F3FF0150FD
:1015B000E4CF0DF0E4CF0CF0E4CF0BF0E4CF0AF071
:1015C000E4CF09F0E4CF08F0E4CF07F0E4CF06F071
:1015D000E4CF05F0E4CF04F0E4CF03F0E4CF02F071
:1015E000E4CF01F0E4CF00F0E4CFD9FF1200D9CF6F
:1015F000E5FFE1CFD9FF00C0E5FF01C0E5FF020E26
:10160000DBCF00F0030EDBCF01F0020E005C02E343
:101610000501318700C032F50501306B015005E04E
:101620000050010A02E105013185E56A0F0EE56E01
:10163000D5EC0DF0E652E652E56A05011951E56E6A
:1016400002EC06F0E652E652E56A05011B51E56E32
:1016500002EC06F0E652E652050131B92AD0030E3B
:10166000E56E9CEC10F0E652E56A050EE56ED5ECF1
:101670000DF0E652E652030EE56E9CEC10F0E652D9
:10168000E56A960EE56E79EC11F0E652E652030E2D
:10169000E56E9CEC10F0E652E56A960EE56E79EC8C
:1016A00011F0E652E652020EE56E9CEC10F0E652A6
:1016B00023D0200E05013111E56EEFEC11F0E6525A
:1016C000E56A050EE56ED5EC0DF0E652E652200E09
:1016D00005013111E56EEFEC11F0E652E56A050EF9
:1016E000E56ED5EC0DF0E652E652200E0501311103
:1016F000E56EEFEC11F0E652200E05013111E56EBA
:10170000EFEC11F0E652040E05012D6F0C0EE56EA4
:10171000EFEC11F0E652010EE56EEFEC11F0E6523F
:10172000E56A020EE56ED5EC0DF0E652E652020EC9
:1017300005012E6F060EE56EEFEC11F0E652E4CFD8
:1017400001F0E4CF00F0E4CFD9FF1200D9CFE5FFDC
:10175000E1CFD9FF00C0E5FF01C0E5FF02C0E5FF12
:1017600003C0E5FF04C0E5FF05C0E5FF06C0E5FFD7
:1017700007C0E5FF08C0E5FF020EDBCF00F0030E57
:10178000DBCF19F5040EDBCF1AF5050EDBCF1BF509
:10179000060EDBCF01F0070EDBCF02F0080EDBCF29
:1017A00003F0090EDBCF04F00A0EDBCF05F00B0EC1
:1017B000DBCF06F00C0EDBCF07F00D0EDBCF08F011
:1017C00001500501116F0250126F0350136F045046
:1017D000146F0550156F0650166F0750176F08509D
:1017E000186FE56A05011951E56E31EC07F0E65214
:1017F000E652E56A05011B51E56E31EC07F0E65251
:10180000E65200501BE00501316B006A110E002406
:10181000016E026A050E022201C0E9FF02C0EAFF62
:10182000EFCF01F0E56A0150E56E31EC07F0E652CA
:10183000E652002A040E005CE9E31BD0100E0501FD
:10184000316F006A110E0024016E026A050E022239
:1018500001C0E9FF02C0EAFFEFCF01F0E56A0150E5
:10186000E56E31EC07F0E652E652002A080E005C05
:10187000E9E3E4CF08F0E4CF07F0E4CF06F0E4CFEB
:1018800005F0E4CF04F0E4CF03F0E4CF02F0E4CFBE
:1018900001F0E4CF00F0E4CFD9FF1200D9CFE5FF8B
:1018A000E1CFD9FF00C0E5FF01C0E5FF02C0E5FFC1
:1018B00003C0E5FF04C0E5FF05C0E5FF06C0E5FF86
:1018C00007C0E5FF08C0E5FF09C0E5FF0AC0E5FF66
:1018D0000BC0E5FF0CC0E5FF0DC0E5FF020EDBCF3E
:1018E00000F0030EDBCF01F0040EDBCF02F0050E9B
:1018F000DBCF03F0060EDBCF04F0070EDBCF05F0E5
:10190000080EDBCF06F0090EDBCF07F00A0EDBCFA7
:1019100008F00B0EDBCF09F006C00AF00B6A07C017
:101920000CF00D6A0C500A260D500B2208C00CF06A
:101930000C500A260D500B2209C00CF00C500A2640
:101940000D500B220A5005E10B5003E10A6A0A2AE6
:1019500001D00A6A0950E56E0850E56E0750E56E41
:101960000650E56E0550E56E0450E56E0350E56ED9
:101970000250E56E0150E56EE5680050E56E0A50D4
:10198000E56EA6EC0BF00C0EE126E4CF0DF0E4CFF3
:101990000CF0E4CF0BF0E4CF0AF0E4CF09F0E4CF91
:1019A00008F0E4CF07F0E4CF06F0E4CF05F0E4CF91
:1019B00004F0E4CF03F0E4CF02F0E4CF01F0E4CF91
:1019C00000F0E4CFD9FF1200D9CFE5FFE1CFD9FF76
:1019D00000C0E5FF01C0E5FF02C0E5FF03C0E5FF71
:1019E00004C0E5FF05C0E5FF06C0E5FF07C0E5FF51
:1019F00008C0E5FF09C0E5FF0AC0E5FF0BC0E5FF31
:101A00000CC0E5FF0DC0E5FF020EDBCF00F0030EBA
:101A1000DBCF01F0040EDBCF02F0050EDBCF03F0CD
:101A2000060EDBCF04F0070EDBCF05F0080EDBCF90
:101A300006F0090EDBCF07F0086A096A0A6A0B6A2A
:101A4000200E0C6E0350800BE8440D6E00500026F3
:101A50000136023603360850082609360A360B3698
:101A60000D50D8A4088007500B5C08E106500A5CB2
:101A700005E10550095C02E10450085C09E30450EB
:101A8000085E0550095A06500A5A07500B5A008042
:101A90000C040D6E0DC00CF00D50D4E103C0E9FF35
:101AA00002C0F4FF01C0F3FF0050E4CF0DF0E4CF1B
:101AB0000CF0E4CF0BF0E4CF0AF0E4CF09F0E4CF70
:101AC00008F0E4CF07F0E4CF06F0E4CF05F0E4CF70
:101AD00004F0E4CF03F0E4CF02F0E4CF01F0E4CF70
:101AE00000F0E4CFD9FF1200020304060102030450
:101AF000127A000048E8010090D0030020A10700FE
:101B000040420F0080841E0000093D0000127A0050
:101B100001020408102040804080010204010204F8
:101B20000820010204010204081020408010010175
:101B30000101010101010202020202000000000095
:101B40000404040303030303030303000D004865B7
:101B50006C6C6F20576F726C6400434F5245447534
:101B6000696E6F205049433138460000E806E56E43
:101B7000090EC9EC0DF0E4500BE000D0E56E090E43
:101B8000C9EC0DF000D0E450000000D0E82EF6D7EC
:101B90001200E8060000E85007E000D000D000D0B6
:101BA00000D00000E82EFAD71200D9CFE5FFE1CF30
:101BB000D9FF00C0E5FF01C0E5FF02C0E5FF03C09B
:101BC000E5FF04C0E5FF05C0E5FF020EDBCF00F036
:101BD000030EDBCF01F060EC08F0026EF3CF03F0F0
:101BE000F4CF04F0E9CF05F0D89005320432033287
:101BF0000232D8900532043203320232E56A010E15
:101C0000E56E860EE56EA00EE56E0550E56E04509D
:101C1000E56E0350E56E0250E56EE4EC0CF0026EEA
:101C2000080EE12600C004F001C005F0FF0E0026FA
:101C300001220450051008E00250046EFD0E042637
:101C40000450B6EC0DF0EED7E4CF05F0E4CF04F08D
:101C5000E4CF03F0E4CF02F0E4CF01F0E4CF00F0F2
:101C6000E4CFD9FF1200D9CFE5FFE1CFD9FF00C003
:101C7000E5FF01C0E5FF02C0E5FF03C0E5FF04C0CA
:101C8000E5FF05C0E5FF06C0E5FF07C0E5FF020E62
:101C9000DBCF00F0030EDBCF01F0040EDBCF02F050
:101CA000050EDBCF03F00250046E0350056E066A8A
:101CB000076A0450F86E0150046E0250056E03501E
:101CC000066E076A0450F76E0050F66E0900F5CFF5
:101CD00000F00900F5CF01F0026A0150046E036ABA
:101CE000056A005003260550042204C0F3FF035088
:101CF000E4CF07F0E4CF06F0E4CF05F0E4CF04F042
:101D0000E4CF03F0E4CF02F0E4CF01F0E4CF00F041
:101D1000E4CFD9FF120014EEFFF024EEFFF0F86AD2
:101D2000A68EA69CBF0EE96E0E0EEA6E0068ED6AE6
:101D30000050FDE1C60EF66E240EF76E000EF86E32
:101D40000900F5CF05F00900F5CF06F034D0090001
:101D5000F5CF00F00900F5CF01F00900F5CF02F052
:101D600009000900F5CFE9FF0900F5CFEAFF0900F6
:101D700009000900F5CF03F00900F5CF04F00900D0
:101D80000900F6CF07F0F7CF08F0F8CF09F000C050
:101D9000F6FF01C0F7FF02C0F8FF03D00900F5CF3E
:101DA000EEFF0306FBE20406F9E207C0F6FF08C0F7
:101DB000F7FF09C0F8FF0506CAE20606C8E2C2EC52
:101DC00011F0FFD7D9CFE5FFE1CFD9FF00C0E5FF84
:101DD00001C0E5FF02C0E5FF03C0E5FF020EDBCF57
:101DE00000F0030EDBCF01F0040EDBCF02F0050E96
:101DF000DBCF03F000500501276F0150286F025020
:101E00000501296F03502A6F050127510501290398
:101E1000F4CF01F0F3CF00F0005005012B6F01501B
:101E20002C6F0501275105012A03F3CF00F00501AE
:101E3000285105012903F3CF01F0015000260501C7
:101E40002C51002600502C6F2CC5F3FF2B51E4CFF2
:101E500003F0E4CF02F0E4CF01F0E4CF00F0E4CFF0
:101E6000D9FF1200030EE56EE80EE56ED5EC0DF01D
:101E7000E652E652E56AE56AE56AE56A020EE56E53
:101E8000030EE56E040EE56E050EE56E120EE56EB0
:101E9000140EE56E4EEC0CF00A0EE126020EE56E15
:101EA000100EE56EF7EC0AF0E652E652E56A1D0EFA
:101EB000E56E31EC07F0E652E652000EE56AE56A9F
:101EC00031EC07F0E652E652000EE56E1B0EE56EB1
:101ED0004E0EE56E1BEC10F0030EE126010EE56ED2
:101EE000000EE56ADCEC10F0E652E652000EE56EFC
:101EF0001B0EE56E5A0EE56E1BEC10F0030EE1268C
:101F00001200D9CFE5FFE1CFD9FF00C0E5FF01C046
:101F1000E5FF02C0E5FF03C0E5FF020EDBCF00F0E6
:101F20000D0E005C0BE3150E005C08E2F30E0024BE
:101F3000016E0144E844FC0BC26E07D0060E005C43
:101F400004E20044E844FC0BC26EC280090E006E3D
:101F5000016A0000FF0E0026012200500110F9E185
:101F6000C282C2B2FED7C4CF00F0016A0050036E35
:101F7000026AC3CF00F0016A00500226015003221A
:101F8000C29003C0F3FF0250E4CF03F0E4CF02F0AD
:101F9000E4CF01F0E4CF00F0E4CFD9FF1200D9CFB5
:101FA000E5FFE1CFD9FF00C0E5FF01C0E5FF02C0BA
:101FB000E5FF03C0E5FF020EDBCF00F0030EDBCF31
:101FC00001F0040EDBCF02F000500B0A17E00050C6
:101FD0000C0A25E10C0EBD6ED8900230036E013064
:101FE000006ED890033200320050BE6E0150006E79
:101FF000030E00160038F00BBD1211D00C0EBA6E95
:10200000D8900230036E0130006ED8900332003257
:102010000050BB6E030E01160138F00BBA129E92EF
:10202000E4CF03F0E4CF02F0E4CF01F0E4CF00F01E
:10203000E4CFD9FF1200D9CFE5FFE1CFD9FF00C02F
:10204000E5FF01C0E5FF02C0E5FF03C0E5FF04C0F6
:10205000E5FF05C0E5FF020EDBCF00F0030EDBCF8E
:1020600001F0040EDBCF02F0036A03500024046E7B
:10207000E86A0120056EE86A022004C0E9FF05C095
:10208000F3FF3EEC12F0046E045007E00450E56EDE
:10209000D9EC11F0E652032AE8D7E4CF05F0E4CFFB
:1020A00004F0E4CF03F0E4CF02F0E4CF01F0E4CF9A
:1020B00000F0E4CFD9FF1200D9CFE5FFE1CFD9FF7F
:1020C00000C0E5FF01C0E5FF02C0E5FF03C0E5FF7A
:1020D000020EDBCF00F0016A110E0124026E036ACA
:1020E000050E032202C0E9FF03C0EAFFEFCF02F0B2
:1020F00000C003F0015005E0E86CD8900332010FF6
:10210000FDE3010E03160350E56E0250E56E02EC8E
:1021100006F0E652E652012A080E015CDDE32CECE3
:1021200012F0E4CF03F0E4CF02F0E4CF01F0E4CF0B
:1021300000F0E4CFD9FF1200D9CFE5FFE1CFD9FFFE
:1021400000C0E5FF01C0E5FF02C0E5FF03C0E5FFF9
:10215000020EDBCF00F0016A110E0124026E036A49
:10216000050E032202C0E9FF03C0EAFFEFCF02F031
:1021700000C003F0015005E0E86CD8900332010F75
:10218000FDE3010E03160350E56E0250E56E02EC0E
:1021900006F0E652E652012A040E015CDDE32CEC67
:1021A00012F0E4CF03F0E4CF02F0E4CF01F0E4CF8B
:1021B00000F0E4CFD9FF1200D9CFE5FFE1CFD9FF7E
:1021C00000C0E5FF01C0E5FF02C0E5FF020EDBCF66
:1021D00000F0030EDBCF01F00501236B400E246FEE
:1021E000140E256F540E266F05013251010A07E1C6
:1021F000140E0501246F280E256F3C0E266F026A0F
:10220000230E0126050E022201C0E9FF02C0EAFFEB
:10221000EFCF01F001500026008E0050E56EEFEC8C
:1022200011F0E652E4CF02F0E4CF01F0E4CF00F089
:10223000E4CFD9FF1200D9CFE5FFE1CFD9FF00C02D
:10224000E5FF01C0E5FF020EDBCF00F0030EDBCFA0
:1022500001F00150E56E05011951E56E02EC06F042
:10226000E652E652050131A906D00050E56E5CEC5D
:1022700010F0E6520BD000380F0BE56E9CEC10F01E
:10228000E6520050E56E9CEC10F0E652E4CF01F00F
:10229000E4CF00F0E4CFD9FF120000C0E5FF01C099
:1022A000E5FF4C0EF66E1B0EF76E000EF86E090081
:1022B000F5CF00F00900F5CF01F00050E56E81EC9C
:1022C0000FF005011C6FF3CF1DF5E652000EE56A15
:1022D000A1EC11F0E65205011D51E56E1C51E56EB1
:1022E000D5EC0DF0E652E652E4CF01F0E4CF00F079
:1022F0001200D9CFE5FFE1CFD9FF00C0E5FF01C053
:10230000E5FF02C0E5FF03C0E5FF020EDBCF00F0F2
:10231000030EDBCF01F0026A036A0150035C02E1A5
:102320000050025C03E2024A032AF7D7E4CF03F02D
:10233000E4CF02F0E4CF01F0E4CF00F0E4CFD9FF26
:102340001200D9CFE5FFE1CFD9FF00C0E5FF01C002
:10235000E5FF020EDBCF00F00050E56E53EC09F014
:10236000016EE65201700150E56E0050E56E02EC20
:1023700006F0E652E652E4CF01F0E4CF00F0E4CFFD
:10238000D9FF1200D0B202D0930ED012D350030B5B
:10239000800F7E0F02E3D3A4FED704EC12F06AECA8
:1023A00012F05BEC12F032EC0FF04DEC11F0FDD7B7
:1023B0001200D9CFE5FFE1CFD9FF00C0E5FF020E43
:1023C000DBCF00F0010EE56E0050E56E1BEC11F066
:1023D000E652E652E4CF00F0E4CFD9FF1200D9CFA5
:1023E000E5FFE1CFD9FF00C0E5FF020EDBCF00F033
:1023F000E56A0050E56E1BEC11F0E652E652E4CFC0
:1024000000F0E4CFD9FF1200896A8A6A8B6A8C6A6D
:102410008D6A926A936A949094929494949C949EF8
:10242000956A966A806A816A826A836A846A1200FF
:10243000D9CFE5FFE1CFD9FF00C0E5FF020EDBCF2A
:1024400000F0005004E00050010A01E1C188E4CF2F
:1024500000F0E4CFD9FF1200010EE56E05011B511B
:10246000E56E02EC06F0E652E652E56A05011B5104
:10247000E56E02EC06F0E652E6521200E8AE04D039
:10248000F3CFEAFFEE501200E8BC76EF12F0E9CF8E
:10249000F6FFF3CFF7FFF86E0900F5501200F2CF08
:1024A000F6FFF29EA69EA69CE9CFA9FFA680A850A3
:1024B000F6BEF28E12002F0E9212070E9612C16E09
:1024C000BD0EC06E12000100E624000019050000D8
:1024D000060000000F0EC16E070EB46E1200CB682E
:1024E000040ECA6E120008FF090000004FEF12F040
:00000001FF
